:100000000C942A000C943F000C943F000C943F0089
:100010000C943F000C943F000C943F000C943F0064
:100020000C943F000C943F000C943F000C943F0054
:100030000C943F000C943F000C943F000C943F0044
:100040000C943F000C943F000C943F000C943F0034
:100050000C943F0011241FBECFE5D8E0DEBFCDBF1A
:1000600011E0A0E6B0E0E6E7F3E102C005900D92F2
:10007000A836B107D9F70E94D5080C94B9090C9499
:100080000000A8E1B0E0E7E4F0E00C948A0969839D
:100090007A838B839C832D833E834F835887B9E07B
:1000A000EB2EF12CEC0EFD1ECE010196B7010E9445
:1000B000EA028E010F5E1F4FCE010596B8010E9425
:1000C000EA022985223008F47EC03989323010F4E2
:1000D000B8017CC08A859A8989278A87243011F0E3
:1000E000223031F4231709F06EC060E670E06EC074
:1000F000343039F41D861E861F86188A1C861B869E
:1001000004C0323021F484E08987B7015FC02B85B9
:100110003C858B899C89281B390B3C872B87ED8478
:10012000FE840F851889AD88BE88CF88D88CEA14E4
:10013000FB040C051D0540F4EE0CFF1C001F111FF5
:10014000215030403C872B8720E030E040E050E0F9
:1001500080E090E0A0E0B0E460E070E0EA14FB042E
:100160000C051D0540F0282B392B4A2B5B2BEA1878
:10017000FB080C091D09B695A79597958795EE0C78
:10018000FF1C001F111F6F5F7F4F6F31710531F72B
:10019000DA01C9018F779070A070B070803491053A
:1001A000A105B10561F427FD0AC0E114F1040105C0
:1001B000110529F0205C3F4F4F4F5F4F20782D876E
:1001C0003E874F87588BBE01675F7F4FCB010E94F0
:1001D00015026896EAE00C94A609A8E1B0E0E3EF06
:1001E000F0E00C948E0969837A838B839C832D8342
:1001F0003E834F83588789E0E82EF12CEC0EFD1EDC
:10020000CE010196B7010E94EA028E010F5E1F4FD8
:10021000CE010596B8010E94EA028985823040F03D
:100220008989823028F0C701B8010E94620301C0A9
:100230008FEF6896E6E00C94AA09A8E1B0E0E3E24B
:10024000F1E00C948E0969837A838B839C832D83E0
:100250003E834F83588789E0E82EF12CEC0EFD1E7B
:10026000CE010196B7010E94EA028E010F5E1F4F78
:10027000CE010596B8010E94EA028985823040F0DD
:100280008989823028F0C701B8010E94620301C049
:1002900081E06896E6E00C94AA09A8E0B0E0E3E506
:1002A000F1E00C948A097B018C01611571058105CF
:1002B000910519F482E0898360C083E089838EE12F
:1002C000C82ED12CDC82CB82ED82FE820F83188770
:1002D000C801B7010E94C601FC013197F7FF3BC07E
:1002E000222733272E1B3F0B57016801022E04C023
:1002F000D694C794B794A7940A94D2F740E050E0FC
:1003000060E070E081E090E0A0E0B0E004C0880F21
:10031000991FAA1FBB1F2A95D2F70197A109B109FE
:100320008E219F21A023B1230097A105B10521F0C3
:1003300041E050E060E070E04A295B296C297D29AA
:100340004D835E836F8378878EE190E08E1B9F0BD9
:100350009C838B8312C0309781F00E2E04C0EE0C6C
:10036000FF1C001F111F0A94D2F7ED82FE820F833B
:100370001887CE1ADF0ADC82CB821A82CE01019660
:100380000E9415022896EAE00C94A609EF92FF92CB
:100390000F931F937B018C0180E0E81680E0F80644
:1003A00081E0080780E0180788F48FEFE816F10471
:1003B0000105110531F028F088E090E0A0E0B0E000
:1003C00017C080E090E0A0E0B0E012C080E0E81646
:1003D00080E0F80680E0080781E0180728F088E14F
:1003E00090E0A0E0B0E004C080E190E0A0E0B0E0E8
:1003F00020E230E040E050E0281B390B4A0B5B0B59
:1004000004C016950795F794E7948A95D2F7F701FB
:10041000E859FF4F8081281B310941095109C90161
:100420001F910F91FF90EF900895DF92EF92FF924E
:100430000F931F93FC01E480F58006811781D18022
:100440008081823048F480E090E0A0E1B0E0E82ACA
:10045000F92A0A2B1B2BA5C0843009F49FC08230D7
:1004600021F4EE24FF24870105C0E114F104010505
:10047000110519F4E0E0F0E096C0628173819FEF0E
:10048000623879070CF05BC022E83FEF261B370B80
:100490002A3131052CF020E030E040E050E02AC065
:1004A000B801A701022E04C0769567955795479528
:1004B0000A94D2F781E090E0A0E0B0E004C0880F99
:1004C000991FAA1FBB1F2A95D2F70197A109B1094D
:1004D0008E219F21A023B1230097A105B10521F012
:1004E00081E090E0A0E0B0E09A01AB01282B392B2D
:1004F0004A2B5B2BDA01C9018F779070A070B07026
:1005000080349105A105B10539F427FF09C0205CAD
:100510003F4F4F4F5F4F04C0215C3F4F4F4F5F4FE6
:10052000E0E0F0E02030A0E03A07A0E04A07A0E4D5
:100530005A0710F0E1E0F0E079018A0127C0603845
:10054000710564F5FB01E158FF4FD801C7018F77B2
:100550009070A070B07080349105A105B10539F498
:10056000E7FE0DC080E490E0A0E0B0E004C08FE3BF
:1005700090E0A0E0B0E0E80EF91E0A1F1B1F17FF75
:1005800005C016950795F794E794319687E0169580
:100590000795F794E7948A95D1F705C0EE24FF24D8
:1005A0008701EFEFF0E06E2F679566276795902F34
:1005B0009F77D794DD24D7948E2F8695492F462B8D
:1005C000582F5D29B701CA011F910F91FF90EF903D
:1005D000DF900895FC01DB01408151812281622F6F
:1005E0006F7770E0221F2227221F9381892F880FA7
:1005F000822B282F30E0991F9927991F11969C93E1
:10060000119721153105A9F54115510561057105B0
:1006100011F482E037C082E89FEF13969C938E938B
:1006200012979A01AB0167E0220F331F441F551F39
:100630006A95D1F783E08C930DC0220F331F441FBE
:10064000551F12968D919C911397019713969C9329
:100650008E931297203080E0380780E0480780E4CE
:10066000580758F314962D933D934D935C93179729
:1006700008952F3F310579F4411551056105710544
:1006800019F484E08C93089564FF03C081E08C9397
:1006900012C01C9210C02F57304013963C932E93DB
:1006A000129783E08C9387E0440F551F661F771FD6
:1006B0008A95D1F7706414964D935D936D937C93F6
:1006C000179708951F93DC01FB019C91923008F469
:1006D00047C08081823008F443C0943051F41196B1
:1006E0001C91843099F58181682F70E0611B71093C
:1006F0003FC0843021F0923031F48230B9F18181F1
:10070000882389F12DC011961C9111978230F1F048
:1007100081811817D9F412962D913C9113978281FB
:1007200093818217930794F028173907BCF0149629
:100730008D919D910D90BC91A02D24813581468194
:100740005781281739074A075B0718F4112341F02E
:100750000AC082179307A407B50740F4112319F0C4
:1007600061E070E005C06FEF7FEF02C060E070E015
:10077000CB011F910895DF93CF93CDB7DEB7A7E2EA
:10078000B0E0E7E2F0E0808180648C93A6E2B0E024
:10079000E6E2F0E0808180688C93A6E2B0E0E6E2D9
:1007A000F0E0808184608C93A6E2B0E0E6E2F0E0C5
:1007B000808182608C93A6E2B0E0E6E2F0E0808186
:1007C0008E7F8C93CF91DF910895DF93CF930F921B
:1007D000CDB7DEB78983A7E2B0E0E7E2F0E0908131
:1007E0008981892B8C93A6E2B0E0E6E2F0E080817B
:1007F00080648C93E6E2F0E08081882F90E0807145
:1008000090709595879595958795959587959595EC
:100810008795009779F3A6E2B0E0E6E2F0E0808108
:1008200080618C930F90CF91DF910895DF93CF93E8
:100830000F92CDB7DEB78983A7E2B0E0E7E2F0E040
:1008400090818981892B8C93A6E2B0E0E6E2F0E00A
:10085000808180648C93A6E2B0E0E6E2F0E08081E3
:1008600080628C93A0E5B0E0E0E5F0E080818F77D6
:100870008C93A0E5B0E0E0E5F0E080818F7B8C9385
:10088000A0E5B0E0E0E5F0E080818F7D8C93E6E2CA
:10089000F0E08081882F90E0807190709595879529
:1008A000959587959595879595958795009779F373
:1008B000A6E2B0E0E6E2F0E0808180618C930F90E8
:1008C000CF91DF910895DF93CF9300D0CDB7DEB7FE
:1008D000E4E2F0E08081282F30E0E5E2F0E0808182
:1008E000882F90E0982F8827822B932B9A838983D7
:1008F00089819A810F900F90CF91DF910895DF93B6
:10090000CF93CDB7DEB72E970FB6F894DEBF0FBEEC
:10091000CDBF89836A834B838A81883008F0BBC14D
:100920008981843008F0B7C18981282F30E03E8763
:100930002D878D859E858130910509F47CC02D859C
:100940003E85223031052CF48D859E85009771F00F
:10095000A0C12D853E852230310509F4D1C08D8599
:100960009E858330910509F430C193C18B81282F76
:1009700030E03C872B878B859C858130910509F47D
:1009800045C02B853C8522303105C9F08B859C857F
:10099000009709F07EC1AAE3B0E0EAE3F0E08081CD
:1009A000482F8A81282F30E081E090E0022E02C09B
:1009B000880F991F0A94E2F7842B8C936AC1AAE3EB
:1009C000B0E0EAE3F0E08081482F8A81282F30E010
:1009D00081E090E002C0880F991F2A95E2F7809588
:1009E00084238C93ABE3B0E0EBE3F0E08081482F0D
:1009F0008A81282F30E081E090E0022E02C0880F2B
:100A0000991F0A94E2F7842B8C9343C1AAE3B0E0C8
:100A1000EAE3F0E08081482F8A81282F30E081E0EE
:100A200090E0022E02C0880F991F0A94E2F7809589
:100A300084238C932EC18B81282F30E03A8729871D
:100A400089859A858130910509F445C029853A85C3
:100A500022303105C9F089859A85009709F019C1BE
:100A6000A7E3B0E0E7E3F0E08081482F8A81282FF8
:100A700030E081E090E0022E02C0880F991F0A94B6
:100A8000E2F7842B8C9305C1A7E3B0E0E7E3F0E045
:100A90008081482F8A81282F30E081E090E002C0D9
:100AA000880F991F2A95E2F7809584238C93A8E3F9
:100AB000B0E0E8E3F0E08081482F8A81282F30E021
:100AC00081E090E0022E02C0880F991F0A94E2F79D
:100AD000842B8C93DEC0A7E3B0E0E7E3F0E08081F5
:100AE000482F8A81282F30E081E090E0022E02C05A
:100AF000880F991F0A94E2F7809584238C93C9C0CC
:100B00008B81282F30E038872F838F819885813023
:100B1000910509F445C02F81388522303105C9F08F
:100B20008F819885009709F0B4C0A4E3B0E0E4E3B6
:100B3000F0E08081482F8A81282F30E081E090E02A
:100B4000022E02C0880F991F0A94E2F7842B8C931F
:100B5000A0C0A4E3B0E0E4E3F0E08081482F8A8104
:100B6000282F30E081E090E002C0880F991F2A957D
:100B7000E2F7809584238C93A5E3B0E0E5E3F0E011
:100B80008081482F8A81282F30E081E090E0022E7A
:100B900002C0880F991F0A94E2F7842B8C9379C0C6
:100BA000A4E3B0E0E4E3F0E08081482F8A81282FBD
:100BB00030E081E090E0022E02C0880F991F0A9475
:100BC000E2F7809584238C9364C08B81282F30E0DA
:100BD0003E832D838D819E818130910509F445C02E
:100BE0002D813E8122303105C9F08D819E81009793
:100BF00009F04FC0A1E3B0E0E1E3F0E08081482FCD
:100C00008A81282F30E081E090E0022E02C0880F18
:100C1000991F0A94E2F7842B8C933BC0A1E3B0E0C8
:100C2000E1E3F0E08081482F8A81282F30E081E0E5
:100C300090E002C0880F991F2A95E2F780958423DF
:100C40008C93A2E3B0E0E2E3F0E08081482F8A8158
:100C5000282F30E081E090E0022E02C0880F991F1B
:100C60000A94E2F7842B8C9314C0A1E3B0E0E1E393
:100C7000F0E08081482F8A81282F30E081E090E0E9
:100C8000022E02C0880F991F0A94E2F780958423F0
:100C90008C931C8202C091E09C838C812E960FB6AF
:100CA000F894DEBF0FBECDBFCF91DF910895DF93E3
:100CB000CF9300D000D00F92CDB7DEB789836A837F
:100CC00089818430A0F58981282F30E03D832C83F1
:100CD0008C819D8181309105D1F02C813D81223024
:100CE00031052CF48C819D81009761F01EC02C8110
:100CF0003D812230310581F08C819D8183309105C9
:100D000081F013C0EAE3F0E08A8180830EC0E7E35C
:100D1000F0E08A81808309C0E4E3F0E08A81808387
:100D200004C0E1E3F0E08A8180831B8202C091E08D
:100D30009B838B810F900F900F900F900F90CF910E
:100D4000DF910895DF93CF9300D000D00F92CDB7FD
:100D5000DEB789836A834B838981843008F0D5C0EC
:100D60008A81883008F0D1C08981282F30E03D8306
:100D70002C838C819D818130910509F443C02C81A5
:100D80003D81223031052CF48C819D81009771F0DA
:100D9000BCC02C813D812230310509F45FC08C81BB
:100DA0009D818330910509F485C0AFC08B8181306E
:100DB000A1F4ABE3B0E0EBE3F0E08081482F8A815F
:100DC000282F30E081E090E0022E02C0880F991FAA
:100DD0000A94E2F7842B8C9398C0ABE3B0E0EBE38A
:100DE000F0E08081482F8A81282F30E081E090E078
:100DF000022E02C0880F991F0A94E2F7809584237F
:100E00008C9383C08B818130A1F4A8E3B0E0E8E348
:100E1000F0E08081482F8A81282F30E081E090E047
:100E2000022E02C0880F991F0A94E2F7842B8C933C
:100E30006CC0A8E3B0E0E8E3F0E08081482F8A814D
:100E4000282F30E081E090E0022E02C0880F991F29
:100E50000A94E2F7809584238C9357C08B8181306C
:100E6000A1F4A5E3B0E0E5E3F0E08081482F8A81BA
:100E7000282F30E081E090E0022E02C0880F991FF9
:100E80000A94E2F7842B8C9340C0A5E3B0E0E5E33D
:100E9000F0E08081482F8A81282F30E081E090E0C7
:100EA000022E02C0880F991F0A94E2F780958423CE
:100EB0008C932BC08B818130A1F4A2E3B0E0E2E3FC
:100EC000F0E08081482F8A81282F30E081E090E097
:100ED000022E02C0880F991F0A94E2F7842B8C938C
:100EE00014C0A2E3B0E0E2E3F0E08081482F8A8101
:100EF000282F30E081E090E0022E02C0880F991F79
:100F00000A94E2F7809584238C930F900F900F90B2
:100F10000F900F90CF91DF910895DF93CF9300D082
:100F200000D0CDB7DEB789836A838981843090F59C
:100F30008981282F30E03C832B838B819C818130F9
:100F40009105D1F02B813C81223031052CF48B812D
:100F50009C81009761F01EC02B813C8122303105BD
:100F600081F08B819C818330910581F013C0EBE38C
:100F7000F0E08A8180830EC0E8E3F0E08A8180831C
:100F800009C0E5E3F0E08A81808304C0E2E3F0E099
:100F90008A8180830F900F900F900F90CF91DF91F7
:100FA0000895DF93CF9300D000D000D0CDB7DEB747
:100FB0008A836B8319828A81843008F0A0C08B8178
:100FC000883008F09CC08A81282F30E03E832D8332
:100FD0004D815E8141305105B1F18D819E8182301C
:100FE000910534F42D813E812115310571F084C0C5
:100FF0004D815E814230510509F443C08D819E814F
:101000008330910509F45BC077C0E9E3F0E08081AB
:10101000482F50E08B81282F30E081E090E002C023
:10102000880F991F2A95E2F79A01282339238B818B
:10103000882F90E0A90102C0559547958A95E2F75F
:10104000CA01898359C0E6E3F0E08081482F50E06F
:101050008B81282F30E081E090E002C0880F991F3B
:101060002A95E2F79A01282339238B81882F90E073
:10107000A90102C0559547958A95E2F7CA0189836F
:101080003BC0E3E3F0E08081482F50E08B81282FC4
:1010900030E081E090E002C0880F991F2A95E2F7C6
:1010A0009A01282339238B81882F90E0A90102C05F
:1010B000559547958A95E2F7CA0189831DC0E0E3FB
:1010C000F0E08081482F50E08B81282F30E081E0D4
:1010D00090E002C0880F991F2A95E2F79A01282311
:1010E00039238B81882F90E0A90102C0559547953F
:1010F0008A95E2F7CA01898359815C8301C01C8209
:101100008C8126960FB6F894DEBF0FBECDBFCF916F
:10111000DF910895DF93CF9300D000D00F92CDB729
:10112000DEB78A838A818430B0F519828A81282FBC
:1011300030E03D832C838C819D8181309105D1F0FD
:101140002C813D81223031052CF48C819D810097CA
:1011500061F01EC02C813D812230310581F08C81EF
:101160009D818330910581F013C0E9E3F0E0808137
:1011700089830EC0E6E3F0E08081898309C0E3E360
:10118000F0E08081898304C0E0E3F0E0808189831E
:1011900099819B8301C01B828B810F900F900F90D0
:1011A0000F900F90CF91DF910895DF93CF93CDB73C
:1011B000DEB72A970FB6F894DEBF0FBECDBF80E032
:1011C00060E00E94570681E06FEF0E9457060E9480
:1011D000BB0380E00E9416040E9463049E838D83FB
:1011E0002D813E81C901880F991F880F991F820F99
:1011F000931FCC01A0E0B0E0BC01CD010E944D01E5
:10120000DC01CB01BC01CD0120E030E040E854E43A
:101210000E944100DC01CB0189839A83AB83BC83AC
:101220001A8669817A818B819C8120E030E040E0E0
:1012300050E00E94ED00181614F481E08A8781E0E6
:101240009A8589278823D1F4198669817A818B81CF
:101250009C8120E030E040EC5FE30E941D01181605
:1012600014F081E0898781E099858927882331F40A
:1012700081E060E041E00E94A2063FC018866981DB
:101280007A818B819C8120E030E040EC5FE30E941A
:10129000ED00181614F481E0888781E0988589278D
:1012A0008823D1F41F8269817A818B819C8120E01F
:1012B00030E040E450E40E941D01181614F081E073
:1012C0008F8381E09F818927882331F481E061E069
:1012D00041E00E94A20611C069817A818B819C81C4
:1012E00020E030E040E450E40E94ED0018162CF4B9
:1012F00081E062E041E00E94A20681E060E00E949D
:101300008D076ACF2F923F924F925F926F927F929A
:101310008F929F92AF92BF92CF92DF92EF92FF9205
:101320000F931F93CF93DF93CDB7DEB7CA1BDB0BB1
:101330000FB6F894DEBF0FBECDBF09942A88398856
:1013400048885F846E847D848C849B84AA84B9845D
:10135000C884DF80EE80FD800C811B81AA81B98169
:10136000CE0FD11D0FB6F894DEBF0FBECDBFED017D
:061370000895F894FFCF80
:101376000000000000000000000102020303030356
:10138600040404040404040405050505050505050F
:1013960005050505050505050606060606060606EF
:1013A60006060606060606060606060606060606D7
:1013B60006060606060606060707070707070707BF
:1013C60007070707070707070707070707070707A7
:1013D6000707070707070707070707070707070797
:1013E6000707070707070707070707070707070787
:1013F600070707070707070708080808080808086F
:101406000808080808080808080808080808080856
:101416000808080808080808080808080808080846
:101426000808080808080808080808080808080836
:101436000808080808080808080808080808080826
:101446000808080808080808080808080808080816
:101456000808080808080808080808080808080806
:1014660008080808080808080808080808080808F6
:0814760008080808080808082E
:00000001FF
