:100000000C942A000C9434000C9434000C943400AA
:100010000C9434000C9434000C9434000C94340090
:100020000C9434000C9434000C9434000C94340080
:100030000C9434000C9434000C9434000C94340070
:100040000C9434000C9434000C9434000C94340060
:100050000C94340011241FBECFE5D8E0DEBFCDBF25
:100060000E948C040C9448050C940000DF93CF93FD
:10007000CDB7DEB72E970FB6F894DEBF0FBECDBF5B
:1000800089836A834B838A81883008F0BBC1898168
:10009000843008F0B7C18981282F30E03E872D8752
:1000A0008D859E858130910509F47CC02D853E8526
:1000B000223031052CF48D859E85009771F0A0C10A
:1000C0002D853E852230310509F4D1C08D859E8570
:1000D0008330910509F430C193C18B81282F30E022
:1000E0003C872B878B859C858130910509F445C021
:1000F0002B853C8522303105C9F08B859C85009786
:1001000009F07EC1AAE3B0E0EAE3F0E08081482F85
:100110008A81282F30E081E090E0022E02C0880F13
:10012000991F0A94E2F7842B8C936AC1AAE3B0E08A
:10013000EAE3F0E08081482F8A81282F30E081E0D7
:1001400090E002C0880F991F2A95E2F780958423DA
:100150008C93ABE3B0E0EBE3F0E08081482F8A8141
:10016000282F30E081E090E0022E02C0880F991F16
:100170000A94E2F7842B8C9343C1AAE3B0E0EAE34C
:10018000F0E08081482F8A81282F30E081E090E0E4
:10019000022E02C0880F991F0A94E2F780958423EB
:1001A0008C932EC18B81282F30E03A87298789854F
:1001B0009A858130910509F445C029853A85223018
:1001C0003105C9F089859A85009709F019C1A7E31F
:1001D000B0E0E7E3F0E08081482F8A81282F30E00B
:1001E00081E090E0022E02C0880F991F0A94E2F786
:1001F000842B8C9305C1A7E3B0E0E7E3F0E08081B6
:10020000482F8A81282F30E081E090E002C0880FDB
:10021000991F2A95E2F7809584238C93A8E3B0E098
:10022000E8E3F0E08081482F8A81282F30E081E0E8
:1002300090E0022E02C0880F991F0A94E2F7842BE7
:100240008C93DEC0A7E3B0E0E7E3F0E08081482FC5
:100250008A81282F30E081E090E0022E02C0880FD2
:10026000991F0A94E2F7809584238C93C9C08B81EF
:10027000282F30E038872F838F8198858130910532
:1002800009F445C02F81388522303105C9F08F81AE
:100290009885009709F0B4C0A4E3B0E0E4E3F0E08F
:1002A0008081482F8A81282F30E081E090E0022E63
:1002B00002C0880F991F0A94E2F7842B8C93A0C088
:1002C000A4E3B0E0E4E3F0E08081482F8A81282FA6
:1002D00030E081E090E002C0880F991F2A95E2F794
:1002E000809584238C93A5E3B0E0E5E3F0E0808182
:1002F000482F8A81282F30E081E090E0022E02C052
:10030000880F991F0A94E2F7842B8C9379C0A4E399
:10031000B0E0E4E3F0E08081482F8A81282F30E0CC
:1003200081E090E0022E02C0880F991F0A94E2F744
:10033000809584238C9364C08B81282F30E03E838A
:100340002D838D819E818130910509F445C02D81D9
:100350003E8122303105C9F08D819E81009709F0E0
:100360004FC0A1E3B0E0E1E3F0E08081482F8A8153
:10037000282F30E081E090E0022E02C0880F991F04
:100380000A94E2F7842B8C933BC0A1E3B0E0E1E355
:10039000F0E08081482F8A81282F30E081E090E0D2
:1003A00002C0880F991F2A95E2F7809584238C93C9
:1003B000A2E3B0E0E2E3F0E08081482F8A81282FB9
:1003C00030E081E090E0022E02C0880F991F0A946D
:1003D000E2F7842B8C9314C0A1E3B0E0E1E3F0E0FA
:1003E0008081482F8A81282F30E081E090E0022E22
:1003F00002C0880F991F0A94E2F7809584238C939A
:100400001C8202C091E09C838C812E960FB6F894DA
:10041000DEBF0FBECDBFCF91DF910895DF93CF93A5
:1004200000D000D00F92CDB7DEB789836A8389816F
:100430008430A0F58981282F30E03D832C838C8186
:100440009D8181309105D1F02C813D812230310593
:100450002CF48C819D81009761F01EC02C813D8120
:100460002230310581F08C819D818330910581F0AE
:1004700013C0EAE3F0E08A8180830EC0E7E3F0E096
:100480008A81808309C0E4E3F0E08A81808304C02C
:10049000E1E3F0E08A8180831B8202C091E09B83CC
:1004A0008B810F900F900F900F900F90CF91DF9155
:1004B0000895DF93CF9300D000D00F92CDB7DEB771
:1004C00089836A834B838981843008F0D5C08A810F
:1004D000883008F0D1C08981282F30E03D832C83FB
:1004E0008C819D818130910509F443C02C813D812F
:1004F000223031052CF48C819D81009771F0BCC0B5
:100500002C813D812230310509F45FC08C819D81B1
:100510008330910509F485C0AFC08B818130A1F48F
:10052000ABE3B0E0EBE3F0E08081482F8A81282F35
:1005300030E081E090E0022E02C0880F991F0A94FB
:10054000E2F7842B8C9398C0ABE3B0E0EBE3F0E0F0
:100550008081482F8A81282F30E081E090E0022EB0
:1005600002C0880F991F0A94E2F7809584238C9328
:1005700083C08B818130A1F4A8E3B0E0E8E3F0E030
:100580008081482F8A81282F30E081E090E0022E80
:1005900002C0880F991F0A94E2F7842B8C936CC0D9
:1005A000A8E3B0E0E8E3F0E08081482F8A81282FBB
:1005B00030E081E090E0022E02C0880F991F0A947B
:1005C000E2F7809584238C9357C08B818130A1F40E
:1005D000A5E3B0E0E5E3F0E08081482F8A81282F91
:1005E00030E081E090E0022E02C0880F991F0A944B
:1005F000E2F7842B8C9340C0A5E3B0E0E5E3F0E0A4
:100600008081482F8A81282F30E081E090E0022EFF
:1006100002C0880F991F0A94E2F7809584238C9377
:100620002BC08B818130A1F4A2E3B0E0E2E3F0E0E3
:100630008081482F8A81282F30E081E090E0022ECF
:1006400002C0880F991F0A94E2F7842B8C9314C080
:10065000A2E3B0E0E2E3F0E08081482F8A81282F16
:1006600030E081E090E0022E02C0880F991F0A94CA
:10067000E2F7809584238C930F900F900F900F904A
:100680000F90CF91DF910895DF93CF9300D000D0EA
:10069000CDB7DEB789836A838981843090F58981FB
:1006A000282F30E03C832B838B819C818130910506
:1006B000D1F02B813C81223031052CF48B819C813F
:1006C000009761F01EC02B813C812230310581F002
:1006D0008B819C818330910581F013C0EBE3F0E0C6
:1006E0008A8180830EC0E8E3F0E08A81808309C0BC
:1006F000E5E3F0E08A81808304C0E2E3F0E08A81F0
:1007000080830F900F900F900F90CF91DF910895FD
:10071000DF93CF9300D000D000D0CDB7DEB78A836F
:100720006B8319828A81843008F0A0C08B81883065
:1007300008F09CC08A81282F30E03E832D834D81B4
:100740005E8141305105B1F18D819E8182309105EC
:1007500034F42D813E812115310571F084C04D8125
:100760005E814230510509F443C08D819E81833002
:10077000910509F45BC077C0E9E3F0E08081482F80
:1007800050E08B81282F30E081E090E002C0880F9C
:10079000991F2A95E2F79A01282339238B81882F04
:1007A00090E0A90102C0559547958A95E2F7CA01E4
:1007B000898359C0E6E3F0E08081482F50E08B81C7
:1007C000282F30E081E090E002C0880F991F2A9521
:1007D000E2F79A01282339238B81882F90E0A90121
:1007E00002C0559547958A95E2F7CA0189833BC0B7
:1007F000E3E3F0E08081482F50E08B81282F30E048
:1008000081E090E002C0880F991F2A95E2F79A01D3
:10081000282339238B81882F90E0A90102C05595A8
:1008200047958A95E2F7CA0189831DC0E0E3F0E0AD
:100830008081482F50E08B81282F30E081E090E0CC
:1008400002C0880F991F2A95E2F79A0128233923BD
:100850008B81882F90E0A90102C0559547958A9514
:10086000E2F7CA01898359815C8301C01C828C81B3
:1008700026960FB6F894DEBF0FBECDBFCF91DF91A5
:100880000895DF93CF9300D000D00F92CDB7DEB79D
:100890008A838A818430B0F519828A81282F30E0DA
:1008A0003D832C838C819D8181309105D1F02C81F9
:1008B0003D81223031052CF48C819D81009761F0BF
:1008C0001EC02C813D812230310581F08C819D81BB
:1008D0008330910581F013C0E9E3F0E080818983E2
:1008E0000EC0E6E3F0E08081898309C0E3E3F0E035
:1008F0008081898304C0E0E3F0E08081898399816D
:100900009B8301C01B828B810F900F900F900F90E3
:100910000F90CF91DF910895DF93CF93CDB7DEB7DE
:1009200080E060E040E00E9436000E949B048FE07F
:100930000E94CA04FCCFDF93CF93CDB7DEB781E02E
:1009400065E040E00E94360081E064E040E00E9403
:10095000360081E067E040E00E94360081E066E01A
:1009600041E00E943600EDE2F0E083E5808381E023
:1009700064E041E00E945902CF91DF910895DF9336
:10098000CF9300D0CDB7DEB789830F900F90CF9172
:10099000DF910895DF93CF9300D0CDB7DEB78A8380
:1009A000198281E064E040E00E945902EFE2F0E049
:1009B0008A818083EEE2F0E08081881F8827881F8B
:1009C000882F90E090700097A9F3EFE2F0E080812B
:1009D000898381E064E041E00E9459020F900F900A
:1009E000CF91DF910895DF93CF93CDB7DEB7EFE2DC
:1009F000F0E08081CF91DF910895DF93CF93CDB761
:100A0000DEB781E065E041E00E94360081E064E00D
:100A100041E00E94360081E067E041E00E9436003C
:100A200081E066E040E00E943600ADE2B0E0EDE239
:100A3000F0E0808180648C93CF91DF910895DF9303
:100A4000CF9300D0CDB7DEB789830F900F90CF91B1
:100A5000DF910895DF93CF930F92CDB7DEB7198260
:100A6000EFE2F0E08FEF8083EEE2F0E08081881F1C
:100A70008827881F882F90E090700097A9F3EFE2F5
:100A8000F0E08081898389810F90CF91DF91089573
:040A9000F894FFCF08
:00000001FF
